:020000040800F2
:1000000000500020FD6400084F6500085B65000893
:1000100061650008676500086D6500080000000064
:1000200000000000000000000000000073650008F0
:100030007F650008000000008B650008C95E0008AD
:100040004D6500084D6500084D6500084138000801
:100050004D6500084D6500084D6500084D650008B8
:100060004D6500084D6500084D6500084D650008A8
:100070004D6500084D6500084D6500084D65000898
:100080004D6500084D6500084D2F00084D650008BE
:100090004D6500084D6500084D6500084D65000878
:1000A0004D6500084D6500084D6500084D65000868
:1000B0004D6500084D6500084D6500084D65000858
:1000C0004D6500084D6500084D6500084D65000848
:1000D0004D650008A5540008D15400084D6500087E
:1000E0004D6500084D6500084D65000800000000E2
:1000F0000000000000000000000000000000000000
:0C01000000000000000000005FF808F1A3
:1001100010B5054C237833B9044B13B10448AFF341
:1001200000800123237010BD08070020000000009C
:10013000F895000808B5034B1BB103490348AFF31A
:10014000008008BD000000000C070020F8950008A2
:10015000034613F8012B002AFBD1181A0138704707
:1001600081F0004102E000BF83F0004330B54FEA68
:1001700041044FEA430594EA050F08BF90EA020FD5
:100180001FBF54EA000C55EA020C7FEA645C7FEA68
:10019000655C00F0E2804FEA5454D4EB5555B8BF8B
:1001A0006D420CDD2C4480EA020281EA030382EAFC
:1001B000000083EA010180EA020281EA0303362D8E
:1001C00088BF30BD11F0004F4FEA01314FF4801C61
:1001D0004CEA113102D0404261EB410113F0004F73
:1001E0004FEA03334CEA133302D0524263EB43032A
:1001F00094EA050F00F0A780A4F10104D5F1200EC8
:100200000DDB02FA0EFC22FA05F2801841F1000122
:1002100003FA0EF2801843FA05F359410EE0A5F1F6
:1002200020050EF1200E012A03FA0EFC28BF4CF027
:10023000020C43FA05F3C01851EBE37101F00045DD
:1002400007D54FF0000EDCF1000C7EEB00006EEBEA
:100250000101B1F5801F1BD3B1F5001F0CD3490874
:100260005FEA30004FEA3C0C04F101044FEA4452CB
:1002700012F5800F80F09A80BCF1004F08BF5FEA52
:10028000500C50F1000041EB045141EA050130BD32
:100290005FEA4C0C404141EB010111F4801FA4F1D5
:1002A0000104E9D191F0000F04BF01460020B1FA2A
:1002B00081F308BF2033A3F10B03B3F120020CDA62
:1002C0000C3208DD02F1140CC2F10C0201FA0CF040
:1002D00021FA02F10CE002F11402D8BFC2F1200CA5
:1002E00001FA02F120FA0CFCDCBF41EA0C0190405B
:1002F000E41AA2BF01EB0451294330BD6FEA0404A4
:100300001F3C1CDA0C340EDC04F11404C4F120028E
:1003100020FA04F001FA02F340EA030021FA04F3A0
:1003200045EA030130BDC4F10C04C4F1200220FAF7
:1003300002F001FA04F340EA0300294630BD21FA35
:1003400004F0294630BD94F0000F83F4801306BFFB
:1003500081F480110134013D4EE77FEA645C18BFEF
:100360007FEA655C29D094EA050F08BF90EA020F86
:1003700005D054EA000C04BF1946104630BD91EA7E
:10038000030F1EBF0021002030BD5FEA545C05D181
:100390004000494128BF41F0004130BD14F58004C0
:1003A0003CBF01F5801130BD01F0004545F0FE4134
:1003B00041F470014FF0000030BD7FEA645C1ABF69
:1003C000194610467FEA655C1CBF0B46024650EAA0
:1003D000013406BF52EA033591EA030F41F40021CC
:1003E00030BD00BF90F0000F04BF0021704730B552
:1003F0004FF4806404F132044FF000054FF0000127
:1004000050E700BF90F0000F04BF0021704730B5E7
:100410004FF4806404F1320410F0004548BF4042BC
:100420004FF000013EE700BF42004FEAE2014FEA11
:1004300031014FEA02701FBF12F07F4393F07F4FEC
:1004400081F06051704792F0000F14BF93F07F4F1E
:10045000704730B54FF4607401F0004521F0004161
:1004600020E700BF50EA010208BF704730B54FF0E7
:1004700000050AE050EA010208BF704730B511F0EC
:10048000004502D5404261EB41014FF4806404F124
:1004900032045FEA915C3FF4DCAE4FF003025FEAA6
:1004A000DC0C18BF03325FEADC0C18BF033202EB2E
:1004B000DC02C2F1200300FA03FC20FA02F001FA88
:1004C00003FE40EA0E0021FA02F11444C1E600BF27
:1004D00070B54FF0FF0C4CF4E06C1CEA11541DBFDA
:1004E0001CEA135594EA0C0F95EA0C0F00F0DEF8A5
:1004F0002C4481EA030621EA4C5123EA4C5350EA8A
:10050000013518BF52EA033541F4801143F48013DA
:1005100038D0A0FB02CE4FF00005E1FB02E506F06B
:100520000042E0FB03E54FF00006E1FB03569CF0C0
:10053000000F18BF4EF0010EA4F1FF04B6F5007FC6
:1005400064F5407404D25FEA4E0E6D4146EB060638
:1005500042EAC62141EA55514FEAC52040EA5E50C1
:100560004FEACE2EB4F1FD0C88BFBCF5E06F1ED86B
:10057000BEF1004F08BF5FEA500E50F1000041EBA2
:10058000045170BD06F0004646EA010140EA02004F
:1005900081EA0301B4EB5C04C2BFD4EB0C0541EA71
:1005A000045170BD41F480114FF0000E013C00F386
:1005B000AB8014F1360FDEBF002001F0004170BDAA
:1005C000C4F10004203C35DA0C341BDC04F11404C3
:1005D000C4F1200500FA05F320FA04F001FA05F24F
:1005E00040EA020001F0004221F0004110EBD3701C
:1005F00021FA04F642EB06015EEA430E08BF20EA48
:10060000D37070BDC4F10C04C4F1200500FA04F3EA
:1006100020FA05F001FA04F240EA020001F000417C
:1006200010EBD37041F100015EEA430E08BF20EAEF
:10063000D37070BDC4F1200500FA05F24EEA020E37
:1006400020FA04F301FA05F243EA020321FA04F066
:1006500001F0004121FA04F220EA020000EBD3701D
:100660005EEA430E08BF20EAD37070BD94F0000F1D
:100670000FD101F00046400041EB010111F4801F51
:1006800008BF013CF7D041EA060195F0000F18BF02
:10069000704703F00046520043EB030313F4801F3E
:1006A00008BF013DF7D043EA0603704794EA0C0FF8
:1006B0000CEA135518BF95EA0C0F0CD050EA41060E
:1006C00018BF52EA4306D1D181EA030101F000418B
:1006D0004FF0000070BD50EA410606BF10461946B3
:1006E00052EA430619D094EA0C0F02D150EA0136BF
:1006F00013D195EA0C0F05D152EA03361CBF104600
:1007000019460AD181EA030101F0004141F0FE419E
:1007100041F470014FF0000070BD41F0FE4141F422
:10072000780170BD70B54FF0FF0C4CF4E06C1CEA22
:1007300011541DBF1CEA135594EA0C0F95EA0C0FD7
:1007400000F0A7F8A4EB050481EA030E52EA033592
:100750004FEA013100F088804FEA03334FF08055B3
:1007600045EA131343EA12634FEA022245EA1115E0
:1007700045EA10654FEA00260EF000419D4208BF91
:10078000964244F1FD0404F5407402D25B084FEA3E
:100790003202B61A65EB03055B084FEA32024FF4EA
:1007A00080104FF4002CB6EB020E75EB030E22BF47
:1007B000B61A754640EA0C005B084FEA3202B6EB07
:1007C000020E75EB030E22BFB61A754640EA5C00B6
:1007D0005B084FEA3202B6EB020E75EB030E22BF46
:1007E000B61A754640EA9C005B084FEA3202B6EB47
:1007F000020E75EB030E22BFB61A754640EADC0006
:1008000055EA060E18D04FEA051545EA16754FEA67
:1008100006164FEAC30343EA52734FEAC2025FEA85
:100820001C1CC0D111F4801F0BD141EA00014FF014
:1008300000004FF0004CB6E711F4801F04BF0143E5
:100840000020B4F1FD0C88BFBCF5E06F3FF6AFAE01
:10085000B5EB030C04BFB6EB020C5FEA500C50F191
:10086000000041EB045170BD0EF0004E4EEA113114
:1008700014EB5C04C2BFD4EB0C0541EA045170BD1B
:1008800041F480114FF0000E013C90E645EA060E5F
:100890008DE60CEA135594EA0C0F08BF95EA0C0F8D
:1008A0003FF43BAF94EA0C0F0AD150EA01347FF4D5
:1008B00034AF95EA0C0F7FF425AF104619462CE7AC
:1008C00095EA0C0F06D152EA03353FF4FDAE10460F
:1008D000194622E750EA410618BF52EA43067FF460
:1008E000C5AE50EA41047FF40DAF52EA43057FF4F0
:1008F000EBAE12E74FF0FF3C06E000BF4FF0010CFB
:1009000002E000BF4FF0010C4DF804CD4FEA410C5E
:100910007FEA6C5C4FEA430C18BF7FEA6C5C1BD02B
:1009200001B050EA410C0CBF52EA430C91EA030FAC
:1009300002BF90EA020F0020704710F1000F91EA09
:10094000030F58BF994208BF90422CBFD8176FEAD7
:10095000E37040F0010070474FEA410C7FEA6C5CA5
:1009600002D150EA013C07D14FEA430C7FEA6C5CAC
:10097000D6D152EA033CD3D05DF8040B704700BFD8
:100980008446104662468C461946634600E000BF26
:1009900001B5FFF7B7FF002848BF10F1000F01BDF8
:1009A0004DF808EDFFF7F4FF0CBF012000205DF8C3
:1009B00008FB00BF4DF808EDFFF7EAFF34BF012048
:1009C00000205DF808FB00BF4DF808EDFFF7E0FFE1
:1009D00094BF012000205DF808FB00BF4DF808ED32
:1009E000FFF7CEFF94BF012000205DF808FB00BF99
:1009F0004DF808EDFFF7C4FF34BF012000205DF87B
:100A000008FB00BF4FEA410C7FEA6C5C02D150EA60
:100A1000013C0AD14FEA430C7FEA6C5C02D152EAF6
:100A2000033C02D14FF0000070474FF001007047C7
:100A30004FEA410212F5001215D211D56FF4787306
:100A4000B3EB625212D94FEAC12343F0004343EAA9
:100A5000505311F0004F23FA02F018BF4042704784
:100A60004FF00000704750EA013005D111F000400E
:100A700008BF6FF0004070474FF00000704700BFA4
:100A80004FEA4102B2F1E04324BFB3F5001CDCF1B0
:100A9000FE5C0DD901F0004C4FEAC0024CEA5070E8
:100AA000B2F1004F40EB830008BF20F00100704717
:100AB00011F0804F21D113F13872BCBF01F000401A
:100AC000704741F480114FEA5252C2F11802C2F14C
:100AD000200C10FA0CF320FA02F018BF40F00100CD
:100AE0004FEAC1234FEAD32303FA0CFC40EA0C007F
:100AF00023FA02F34FEA4303CCE77FEA625307D1BC
:100B000050EA01331EBF4FF0FE4040F440007047F2
:100B100001F0004040F0FE4040F40000704700BF8C
:100B200080F0004002E000BF81F0004142001FBFA2
:100B30005FEA410392EA030F7FEA226C7FEA236CAB
:100B40006AD04FEA1262D2EB1363C1BFD2184140A0
:100B500048404140B8BF5B42192B88BF704710F036
:100B6000004F40F4000020F07F4018BF404211F0D9
:100B7000004F41F4000121F07F4118BF494292EA41
:100B8000030F3FD0A2F1010241FA03FC10EB0C006D
:100B9000C3F1200301FA03F100F0004302D54942FA
:100BA00060EB4000B0F5000F13D3B0F1807F06D3A7
:100BB00040084FEA310102F10102FE2A51D2B1F19F
:100BC000004F40EBC25008BF20F0010040EA030094
:100BD0007047490040EB000010F4000FA2F1010241
:100BE000EDD1B0FA80FCACF1080CB2EB0C0200FACB
:100BF0000CF0AABF00EBC25052421843BCBFD04019
:100C00001843704792F0000F81F4000106BF80F492
:100C100000000132013BB5E74FEA41037FEA226C55
:100C200018BF7FEA236C21D092EA030F04D092F020
:100C3000000F08BF0846704790EA010F1CBF002054
:100C4000704712F07F4F04D1400028BF40F00040B1
:100C5000704712F100723CBF00F50000704700F0D1
:100C6000004343F0FE4040F4000070477FEA2262F8
:100C700016BF08467FEA23630146420206BF5FEAC9
:100C8000412390EA010F40F4800070474FF00003C9
:100C900004E000BF10F0004348BF40425FEA000C90
:100CA00008BF704743F0964301464FF000001CE038
:100CB00050EA010208BF70474FF000030AE000BF8E
:100CC00050EA010208BF704711F0004302D54042CC
:100CD00061EB41015FEA010C02BF8446014600203E
:100CE00043F0B64308BFA3F18053A3F50003BCFA59
:100CF0008CF2083AA3EBC25310DB01FA02FC634406
:100D000000FA02FCC2F12002BCF1004F20FA02F20C
:100D100043EB020008BF20F00100704702F12002FF
:100D200001FA02FCC2F1200250EA4C0021FA02F260
:100D300043EB020008BF20EADC7070474FF0FF0C65
:100D40001CEAD0521EBF1CEAD15392EA0C0F93EA60
:100D50000C0F6FD01A4480EA010C400218BF5FEA02
:100D600041211ED04FF0006343EA501043EA511175
:100D7000A0FB01310CF00040B1F5000F3EBF49006F
:100D800041EAD3715B0040EA010062F17F02FD2A73
:100D90001DD8B3F1004F40EBC25008BF20F0010056
:100DA000704790F0000F0CF0004C08BF49024CEA6D
:100DB000502040EA51207F3AC2BFD2F1FF0340EAFF
:100DC000C250704740F400004FF00003013A5DDC70
:100DD00012F1190FDCBF00F000407047C2F10002B1
:100DE000410021FA02F1C2F1200200FA02FC5FEA9E
:100DF000310040F1000053EA4C0308BF20EADC70E8
:100E0000704792F0000F00F0004C02BF400010F459
:100E1000000F013AF9D040EA0C0093F0000F01F006
:100E2000004C02BF490011F4000F013BF9D041EA28
:100E30000C018FE70CEAD15392EA0C0F18BF93EA2A
:100E40000C0F0AD030F0004C18BF31F0004CD8D154
:100E500080EA010000F00040704790F0000F17BFDB
:100E600090F0004F084691F0000F91F0004F14D021
:100E700092EA0C0F01D142020FD193EA0C0F03D179
:100E80004B0218BF084608D180EA010000F000407C
:100E900040F0FE4040F40000704740F0FE4040F457
:100EA000400070474FF0FF0C1CEAD0521EBF1CEAF6
:100EB000D15392EA0C0F93EA0C0F69D0A2EB030214
:100EC00080EA010C49024FEA402037D04FF08053AE
:100ED00043EA111143EA10130CF000408B4238BF73
:100EE0005B0042F17D024FF4000C8B4224BF5B1A81
:100EF00040EA0C00B3EB510F24BFA3EB510340EACF
:100F00005C00B3EB910F24BFA3EB910340EA9C007C
:100F1000B3EBD10F24BFA3EBD10340EADC001B01EC
:100F200018BF5FEA1C1CE0D1FD2A3FF650AF8B4290
:100F300040EBC25008BF20F0010070470CF0004C9D
:100F40004CEA50207F32C2BFD2F1FF0340EAC250C8
:100F5000704740F400004FF00003013A37E792F089
:100F6000000F00F0004C02BF400010F4000F013AE7
:100F7000F9D040EA0C0093F0000F01F0004C02BFE2
:100F8000490011F4000F013BF9D041EA0C0195E74B
:100F90000CEAD15392EA0C0F08D142027FF47DAFE4
:100FA00093EA0C0F7FF470AF084676E793EA0C0FD4
:100FB00004D14B023FF44CAF08466EE730F0004CD2
:100FC00018BF31F0004CCAD130F000427FF45CAF62
:100FD00031F000437FF43CAF5FE700BF42000ED228
:100FE000B2F1FE4F0BD34FF09E03B3EB126209D464
:100FF0004FEA002343F0004323FA02F070474FF01A
:101000000000704712F1610F01D1420202D14FF08E
:10101000FF3070474FF00000704700BF53B94AB926
:10102000002908BF00281CBF4FF0FF314FF0FF30F0
:1010300000F07AB9ADF1080C6DE904CE00F006F8C5
:10104000DDF804E0DDE9022304B070472DE9F04744
:101050008C460E460446089D002B50D18A42174606
:101060006CD9B2FA82FEBEF1000F0BD0CEF1200C8B
:1010700001FA0EF620FA0CFC02FA0EF74CEA060C06
:1010800000FA0EF43A0CBCFBF2F9BBB202FB19CC2D
:1010900009FB03FA4FEA144848EA0C46B2450AD95C
:1010A000F61909F1FF3180F02581B24540F2228125
:1010B000A9F102093E44A6EB0A06B6FBF2F002FBD8
:1010C000106600FB03F3A4B244EA0644A34209D924
:1010D000E41900F1FF3280F00B81A34240F2088155
:1010E00002383C440021E41A40EA0940002D62D055
:1010F000002324FA0EF42C606B60BDE8F0878B426D
:1011000007D9002D55D0002185E841000846BDE8EB
:10111000F087B3FA83F1002940F08F80B34202D305
:10112000824200F2FC80841A66EB03060120B4467A
:10113000002D40D085E81010BDE8F08712B90127D6
:10114000B7FBF2F7B7FA87FEBEF1000F35D10121E8
:10115000F61B4FEA174C1FFA87F8B6FBFCF20CFBA4
:10116000126608FB02F0230C43EA0646B04207D998
:10117000F61902F1FF3302D2B04200F2D2801A46D1
:10118000361AB6FBFCF00CFB106608FB00F8A3B2A5
:1011900043EA0644A04507D9E41900F1FF3302D21F
:1011A000A04500F2B9801846A4EB080440EA0240CA
:1011B0009CE729462846BDE8F08707FA0EF7CEF1EE
:1011C000200326FA03F24FEA174CB2FBFCF11FFA98
:1011D00087F80CFB112206FA0EF620FA03F301FB46
:1011E00008F933431E0C46EA0246B14500FA0EF4F4
:1011F00009D9F61901F1FF3280F08C80B14540F237
:10120000898002393E44A6EB0906B6FBFCF00CFBD4
:10121000106200FB08F99EB246EA0246B14507D9C2
:10122000F61900F1FF3371D2B1456FD902383E444F
:10123000A6EB090640EA01418FE7C1F1200722FA37
:1012400007F88B4048EA030326FA07F44FEA134EE7
:10125000B4FBFEF91FFA83FC0EFB19448E4020FA02
:1012600007F809FB0CFA48EA06084FEA184646EA6E
:101270000444A24502FA01F200FA01F608D9E41882
:1012800009F1FF3044D2A24542D9A9F102091C4418
:10129000A4EB0A04B4FBFEF00EFB104400FB0CFCB4
:1012A0001FFA88F848EA0444A44507D9E41800F175
:1012B000FF3E29D2A44527D902381C4440EA094000
:1012C000A0FB0289A4EB0C0CCC45C246CE4615D33C
:1012D00012D055B1B6EB0A036CEB0E0606FA07F70F
:1012E000CB401F43CE402F606E600021BDE8F087E9
:1012F0001046F7E68946DEE64645EAD2B8EB020A32
:1013000069EB030E0138E4E77046D7E718468FE72C
:101310008146BDE7114676E702383C4444E708467B
:1013200006E7023A3E442BE7704700BF80B483B023
:1013300000AF7860054A7B6843F0BF6343F4003335
:10134000D36000BF0C37BD4680BC704700ED00E0A5
:1013500080B487B000AF786000237B6100233B61DD
:101360000F23FB607B68DB78002B3AD0274BDB68D0
:10137000DB431B0A03F007037B617B69C3F10403B2
:101380003B61FA687B6922FA03F3FB607B685B7858
:101390001A463B6902FA03F37B617B689B781A4625
:1013A000FB6813407A6913437B617B691B017B6196
:1013B000174A7B681B787969C9B213440A4683F8D7
:1013C0000023134A7B681B785B09DBB218467B68F5
:1013D0001B7803F01F03012101FA03F342F82030C8
:1013E0000FE00B497B681B785B09DBB218467B6812
:1013F0001B7803F01F0301229A4000F1200341F8FB
:10140000232000BF1C37BD4680BC704700ED00E0C4
:1014100000E100E080B582B000AF78607B68174AD9
:1014200093420AD101214FF4007000F07FFD0021AA
:101430004FF4007000F07AFD1CE07B68104A934284
:101440000AD101214FF4806000F070FD00214FF4BB
:10145000806000F06BFD0DE07B680A4A934209D181
:1014600001214FF4004000F061FD00214FF40040E5
:1014700000F05CFD00BF0837BD4680BD0024014080
:1014800000280140003C014080B485B000AF786086
:1014900039600023FB600023FB727B685B68FB60A4
:1014A000FB6823F4702323F48073FB603B681A68A5
:1014B0003B681B791B021343FA681343FB607B688C
:1014C000FA685A607B689B68FB60FA68164B1340A9
:1014D000FB603B68DA683B689B681A433B685B7952
:1014E0005B001343FA681343FB607B68FA689A60F9
:1014F0007B68DB6AFB60FB6823F47003FB603B687E
:101500001B7C013BDAB2FB7A1343FB72FB7A1B05AF
:10151000FA681343FB607B68FA68DA6200BF14372D
:10152000BD4680BC704700BFFDF7F1FF80B483B0BB
:1015300000AF78600B46FB70FB78002B06D07B6811
:101540009B6843F001027B689A6005E07B689B68BA
:1015500023F001027B689A6000BF0C37BD4680BC57
:10156000704780B485B000AF78600B467B8013462F
:101570007B700023FB737B88FB737B78002B06D08A
:101580007B685A68FB7B1A437B685A6006E07B687D
:101590005A68FB7BDB431A407B685A6000BF1437F4
:1015A000BD4680BC704780B483B000AF78607B6874
:1015B0009B6843F008027B689A6000BF0C37BD4609
:1015C00080BC704780B485B000AF78600023FB73A7
:1015D0007B689B6803F00803002B02D00123FB7398
:1015E00001E00023FB73FB7B18461437BD4680BC2B
:1015F000704780B483B000AF78607B689B6843F02D
:1016000004027B689A6000BF0C37BD4680BC7047FF
:1016100080B485B000AF78600023FB737B689B6863
:1016200003F00403002B02D00123FB7301E000232D
:10163000FB73FB7B18461437BD4680BC704780B4F3
:1016400083B000AF78600B46FB70FB78002B06D0B0
:101650007B689B6843F4A0027B689A6005E07B6826
:101660009B6823F4A0027B689A6000BF0C37BD46DC
:1016700080BC704780B485B000AF786008461146E2
:101680001A460346FB700B46BB7013467B70002363
:10169000FB600023BB60FB78092B23D97B68DB68E8
:1016A000FB60FB78A3F10A0213465B001344072298
:1016B00002FA03F3BB60BB68DB43FA681340FB60CC
:1016C0007978FB78A3F10A0213465B00134401FA10
:1016D00003F3BB60FA68BB681343FB607B68FA687E
:1016E000DA601EE07B681B69FB60FA7813465B00DA
:1016F0001344072202FA03F3BB60BB68DB43FA68BA
:101700001340FB607978FA7813465B00134401FAC2
:1017100003F3BB60FA68BB681343FB607B68FA683D
:101720001A61BB78062B21D87B685B6BFB60BB78AA
:101730005A1E13469B0013441F2202FA03F3BB6098
:10174000BB68DB43FA681340FB60F978BB785A1E2C
:1017500013469B00134401FA03F3BB60FA68BB68AD
:101760001343FB607B68FA685A6347E0BB780C2B35
:1017700021D87B681B6BFB60BB78DA1F13469B008C
:1017800013441F2202FA03F3BB60BB68DB43FA6811
:101790001340FB60F978BB78DA1F13469B001344B3
:1017A00001FA03F3BB60FA68BB681343FB607B6814
:1017B000FA681A6322E07B68DB6AFB60BB78A3F1FE
:1017C0000D0213469B0013441F2202FA03F3BB6071
:1017D000BB68DB43FA681340FB60F978BB78A3F180
:1017E0000D0213469B00134401FA03F3BB60FA6831
:1017F000BB681343FB607B68FA68DA6200BF14378A
:10180000BD4680BC704780B483B000AF78607B6811
:10181000DB6C9BB218460C37BD4680BC704780B469
:1018200085B000AF78600B46FB700023FB737B68CC
:101830001A68FB781340002B02D00123FB7301E0F0
:101840000023FB73FB7B18461437BD4680BC7047F2
:1018500080B483B000AF78600B46FB70FB78DA434E
:101860007B681A6000BF0C37BD4680BC704780B4EF
:1018700085B000AF78600B467B800023FB737B88CC
:101880001B0A9BB2FB73FB7BDA437B681A6000BFC9
:101890001437BD4680BC704780B500AF012000F012
:1018A00063FB002000F060FB00BF80BD80B485B00A
:1018B00000AF03460A46FB801346BB800023FB6053
:1018C000074BFB60FA88FB681344FB60FB681A4611
:1018D000BB88136000BF1437BD4680BC704700BF93
:1018E000006C004080B485B000AF0346FB8000234D
:1018F000FB60074BFB60FA88FB681344FB60FB68E6
:101900001B889BB218461437BD4680BC704700BF89
:10191000006C004080B400AF044B054A5A60034B92
:10192000044A5A6000BFBD4680BC70470020024098
:1019300023016745AB89EFCD80B400AF044A044B67
:101940001B6943F08003136100BFBD4680BC704734
:101950000020024080B584B000AF78600423FB73A0
:101960004FF4302000F0AAF80346FB73FB7B042BF6
:101970001BD1104A0F4B1B6943F0020313610D4A40
:101980007B6853610B4A0B4B1B6943F040031361A7
:101990004FF4302000F092F80346FB730549054BE5
:1019A0001A6941F6FD7313400B61FB7B1846103733
:1019B000BD4680BD0020024080B584B000AF786095
:1019C00039600423FB730023BB604FF4005000F028
:1019D00075F80346FB73FB7B042B30D11A4A1A4B74
:1019E0001B6943F0010313617B683A6892B21A8065
:1019F0004FF4005000F062F80346FB73FB7B042BAE
:101A000016D17B680233BB60BB681A463B681B0C6F
:101A10009BB213804FF4005000F050F80346FB7364
:101A20000949094B1A6941F6FE7313400B6106E040
:101A30000549054B1A6941F6FE7313400B61FB7BA8
:101A400018461037BD4680BD0020024080B483B0E8
:101A500000AF7860034A7B68D36000BF0C37BD4697
:101A600080BC70470020024080B483B000AF0423E4
:101A7000FB71114BDB6803F00103012B02D1012341
:101A8000FB7113E00C4BDB6803F00403002B02D066
:101A90000223FB710AE0084BDB6803F01003002B04
:101AA00002D00323FB7101E00423FB71FB7918468C
:101AB0000C37BD4680BC70470020024080B584B022
:101AC00000AF78600423FB73FFF7CEFF0346FB7380
:101AD00006E0FFF7C9FF0346FB737B68013B7B60B1
:101AE000FB7B012B02D17B68002BF2D17B68002BA2
:101AF00001D10523FB73FB7B18461037BD4680BD23
:101B000080B489B000AF786039600023FB610023A6
:101B10003B610023BB610023FB6000237B6100234A
:101B2000BB603B68DB7803F00F03FB613B68DB784D
:101B300003F01003002B05D03B689B781A46FB6925
:101B40001343FB613B681B88DBB2002B44D07B68EE
:101B50001B687B610023BB6138E00122BB6902FA8C
:101B600003F3FB603B681B881A46FB6813403B612C
:101B70003A69FB689A4226D1BB699B00FB600F2241
:101B8000FB6802FA03F3BB60BB68DB437A6913406E
:101B90007B61FA69FB6802FA03F37A6913437B619C
:101BA0003B68DB78282B05D10122BB699A407B6812
:101BB0005A6108E03B68DB78482B04D10122BB69FD
:101BC0009A407B681A61BB690133BB61BB69072B13
:101BD000C3D97B687A691A603B681B88FF2B46D99A
:101BE0007B685B687B610023BB613AE0BB690833BB
:101BF000012202FA03F3FB603B681B881A46FB686C
:101C000013403B613A69FB689A4227D1BB699B004C
:101C1000FB600F22FB6802FA03F3BB60BB68DB4387
:101C20007A6913407B61FA69FB6802FA03F37A6907
:101C300013437B613B68DB78282B05D1BB690833F4
:101C400001229A407B685A613B68DB78482B05D1BA
:101C5000BB69083301229A407B681A61BB69013372
:101C6000BB61BB69072BC1D97B687A695A6000BF29
:101C70002437BD4680BC704780B483B000AF0346B4
:101C8000FB71044AFB79136000BF0C37BD4680BC72
:101C9000704700BF20000E4280B485B000AF78606E
:101CA0000023FB60094B5B68FB60FB6823F4404347
:101CB000FB60FA687B681343FB60044AFB6853606F
:101CC00000BF1437BD4680BC704700BF0010024003
:101CD00080B483B000AF0346FB710C4B00221A7036
:101CE0000A4B00221A70FB79012B02D0042B04D07E
:101CF00007E0064B01221A7003E0044B05221A701C
:101D000000BF00BF0C37BD4680BC704720100240AA
:101D100080B483B000AF78600549054B1A6A7B68D0
:101D200013430B6200BF0C37BD4680BC704700BF39
:101D30000010024080B483B000AF0346FB71044A38
:101D4000FB79136000BF0C37BD4680BC704700BFF5
:101D50003C04424280B487B000AF786000237B61CE
:101D600000233B610023FB600023BB604C4B5B689E
:101D700003F00C037B617B69042B07D0082B09D08F
:101D8000002B33D17B68474A1A6033E07B68454AB1
:101D90001A602FE0424B5B6803F470133B61404BC9
:101DA0005B6803F48033FB603B699B0C02333B614F
:101DB000FB68002B06D13B693B4A02FB03F27B68C0
:101DC0001A6017E0364B5B6803F40033002B06D033
:101DD0003B69354A02FB03F27B681A600AE03B6903
:101DE000304A02FB03F27B681A6003E07B682D4AED
:101DF0001A6000BF2A4B5B6803F0F0037B617B69CC
:101E00001B097B61294A7B6913441B78DBB2BB60E9
:101E10007B681A68BB68DA407B685A60204B5B6855
:101E200003F4E0637B617B691B0A7B611F4A7B696A
:101E300013441B78DBB2BB607B685A68BB68DA402E
:101E40007B689A60164B5B6803F460537B617B6927
:101E5000DB0A7B61154A7B6913441B78DBB2BB60EC
:101E60007B685A68BB68DA407B68DA600C4B5B6859
:101E700003F440437B617B699B0B7B610C4A7B696C
:101E800013441B78DBB2BB607B68DA68BB68B2FBCB
:101E9000F3F27B681A6100BF1C37BD4680BC7047F7
:101EA0000010024000127A0000093D0000000020EE
:101EB0001000002080B483B000AF78600B46FB7048
:101EC000FB78002B06D00949084B9A697B681343BD
:101ED0008B6106E00549054B9A697B68DB4313403B
:101EE0008B6100BF0C37BD4680BC704700100240BC
:101EF00080B483B000AF78600B46FB70FB78002B9A
:101F000006D00949084BDA697B681343CB6106E0C8
:101F10000549054BDA697B68DB431340CB6100BFA1
:101F20000C37BD4680BC70470010024080B483B0BF
:101F300000AF78600B46FB70FB78002B06D0094998
:101F4000084BDA687B681343CB6006E00549054B14
:101F5000DA687B68DB431340CB6000BF0C37BD46BB
:101F600080BC70470010024080B483B000AF0346CD
:101F7000FB71044AFB79136000BF0C37BD4680BC7F
:101F8000704700BF4004424280B487B000AF0346B0
:101F9000FB710023FB6000237B610023FB74FB7952
:101FA0005B09DBB2FB60FB68012B03D1124B1B68A2
:101FB0007B6109E0FB68022B03D10F4B1B6A7B613D
:101FC00002E00D4B5B6A7B61FB7903F01F03FB6052
:101FD0007A69FB6822FA03F303F00103002B02D0B5
:101FE0000123FB7401E00023FB74FB7C18461C37C3
:101FF000BD4680BC704700BF0010024080B400AFF7
:10200000044A044B5B6A43F08073536200BFBD46D1
:1020100080BC70470010024080B483B000AF03461C
:102020000A46FB8013467B717B79002B08D00C4954
:102030000B4B1B889AB2FB8813439BB20B8009E0C1
:102040000749074B1B889AB2FB88DB439BB21340BE
:102050009BB20B8000BF0C37BD4680BC704700BFF1
:102060000028004080B400AF054A054B9B889BB216
:1020700043F010039BB2938000BFBD4680BC704705
:102080000028004080B400AF054A054B9B889BB2F6
:1020900023F010039BB2938000BFBD4680BC704705
:1020A0000028004080B483B000AF0023FB800023F1
:1020B000BB8000237B800E4B1B8BFB800C4B9B8BD0
:1020C0007B800B4B1B8BBB80FA88BB889A4206D067
:1020D000BB881B04064A928B92B2134303E0FB8831
:1020E0001A047B88134318460C37BD4680BC7047E2
:1020F0000028004080B582B000AF7860FFF7B2FFE3
:10210000074A7B681B0C9BB21383054B7A6892B21B
:102110009A83FFF7B7FF00BF0837BD4680BD00BFF9
:102120000028004080B582B000AF7860FFF79AFFCA
:10213000084A7B681B0C9BB203F00F039BB2138110
:10214000044B7A6892B29A81FFF79CFF00BF083770
:10215000BD4680BD0028004080B400AF00BF054BE5
:102160009B889BB203F02003002BF8D000BFBD4634
:1021700080BC70470028004080B400AF094A094B7A
:102180009B889BB223F008039BB2938000BF054B52
:102190009B889BB203F00803002BF8D000BFBD461C
:1021A00080BC70470028004080B485B000AF034673
:1021B000FB800023FB730F4B9B889BB2DAB2FB883A
:1021C000DBB21340FB730B4B1B889AB2FB881340A6
:1021D0009BB2002B05D0FB7B002B02D00123FB73AD
:1021E00001E00023FB73FB7B18461437BD4680BC1F
:1021F000704700BF0028004080B483B000AF0346A2
:10220000FB800749064B9B889AB2FB88DB439BB255
:1022100013409BB28B8000BF0C37BD4680BC70471B
:102220000028004080B485B000AF7860396000239A
:10223000FB817B681B88FB817B682E4A934213D00D
:102240007B682D4A93420FD07B68B3F1804F0BD04F
:102250007B682A4A934207D07B68294A934203D07D
:102260007B68284A934208D1FB8923F07003FB81E5
:102270003B685A88FB891343FB817B68224A93425F
:102280000CD07B68214A934208D0FB8923F4407329
:10229000FB813B68DA88FB891343FB817B68FA8901
:1022A0001A803B689A887B689A853B681A887B68A5
:1022B0001A857B680F4A93420FD07B680E4A93427F
:1022C0000BD07B68124A934207D07B68114A934235
:1022D00003D07B68104A934204D13B681B7A9AB2C0
:1022E0007B681A867B6801229A8200BF1437BD463C
:1022F00080BC7047002C01400034014000040040C5
:1023000000080040000C0040001000400014004095
:1023100000400140004401400048014080B485B0C5
:1023200000AF7860396000237B810023FB810023AC
:10233000BB817B681B8C9BB223F001039AB27B6844
:102340001A847B681B8CFB817B689B88BB817B68C4
:102350001B8B7B817B8923F070037B817B8923F03E
:1023600003037B813B681A887B8913437B81FB894C
:1023700023F00203FB813B681A89FB891343FB812D
:102380003B685A88FB891343FB817B68244A93424C
:102390000FD07B68234A93420BD07B68224A93423A
:1023A00007D07B68214A934203D07B68204A93423E
:1023B00023D1FB8923F00803FB813B685A89FB8901
:1023C0001343FB81FB8923F00403FB813B689A885C
:1023D000FB891343FB81BB8923F48073BB81BB89D9
:1023E00023F40073BB813B689A89BB891343BB818B
:1023F0003B68DA89BB891343BB817B68BA899A80C1
:102400007B687A891A833B68DA887B689A867B685E
:10241000FA891A8400BF1437BD4680BC704700BFDC
:10242000002C0140003401400040014000440140C4
:102430000048014080B485B000AF78603960002367
:102440007B810023FB810023BB817B681B8C9BB2BB
:1024500023F010039AB27B681A847B681B8CFB8183
:102460007B689B88BB817B681B8B7B817B8923F48A
:10247000E0437B817B8923F440737B813B681B882D
:102480001B029AB27B8913437B81FB8923F02003D3
:10249000FB813B681B891B019AB2FB891343FB81BB
:1024A0003B685B881B019AB2FB891343FB817B6805
:1024B000224A934203D07B68214A93422BD1FB8965
:1024C00023F08003FB813B685B891B019AB2FB8987
:1024D0001343FB81FB8923F04003FB813B689B880E
:1024E0001B019AB2FB891343FB81BB8923F48063F0
:1024F000BB81BB8923F40063BB813B689B899B0044
:102500009AB2BB891343BB813B68DB899B009AB2BB
:10251000BB891343BB817B68BA899A807B687A89BF
:102520001A833B68DA887B681A877B68FA891A8481
:1025300000BF1437BD4680BC704700BF002C01406F
:102540000034014080B485B000AF7860396000236A
:102550007B810023FB810023BB817B681B8C9BB2AA
:1025600023F480739AB27B681A847B681B8CFB818E
:102570007B689B88BB817B689B8B7B817B8923F0FD
:1025800070037B817B8923F003037B813B681A887E
:102590007B8913437B81FB8923F40073FB813B68B8
:1025A0001B891B029AB2FB891343FB813B685B8842
:1025B0001B029AB2FB891343FB817B68224A934238
:1025C00003D07B68214A93422BD1FB8923F400631B
:1025D000FB813B685B891B029AB2FB891343FB8139
:1025E000FB8923F48063FB813B689B881B029AB2C2
:1025F000FB891343FB81BB8923F48053BB81BB89D7
:1026000023F40053BB813B689B891B019AB2BB89B1
:102610001343BB813B68DB891B019AB2BB8913431F
:10262000BB817B68BA899A807B687A899A833B6888
:10263000DA887B689A877B68FA891A8400BF143726
:10264000BD4680BC704700BF002C014000340140F3
:1026500080B485B000AF786039600023BB8100236F
:102660007B810023FB817B681B8C9BB223F480530E
:102670009AB27B681A847B681B8C7B817B689B8801
:10268000FB817B689B8BBB81BB8923F4E043BB81CF
:10269000BB8923F44073BB813B681B881B029AB241
:1026A000BB891343BB817B8923F400537B813B6847
:1026B0001B891B039AB27B8913437B813B685B8830
:1026C0001B039AB27B8913437B817B68124A934236
:1026D00003D07B68114A93420AD1FB8923F48043DB
:1026E000FB813B689B899B019AB2FB891343FB8169
:1026F0007B68FA899A807B68BA899A833B68DA8812
:102700007B68A3F840207B687A891A8400BF14375D
:10271000BD4680BC704700BF002C01400034014022
:1027200080B483B000AF78607B684FF6FF729A8008
:102730007B6800221A807B680022DA807B68002296
:102740005A807B6800221A7200BF0C37BD4680BCDD
:10275000704780B483B000AF78607B6800221A8035
:102760007B6800225A807B6800229A807B68002266
:10277000DA807B6800221A817B6800225A817B689C
:1027800000229A817B680022DA8100BF0C37BD46A7
:1027900080BC704780B483B000AF78600B46FB709C
:1027A000FB78002B08D07B681B889BB243F00103A9
:1027B0009AB27B681A8007E07B681B889BB223F083
:1027C00001039AB27B681A8000BF0C37BD4680BCFB
:1027D000704780B483B000AF78600B46FB70FB7825
:1027E000002B0CD07B68B3F844309BB26FEA4343B4
:1027F0006FEA53439AB27B68A3F8442009E07B68F0
:10280000B3F844309BB2C3F30E039AB27B68A3F8CB
:10281000442000BF0C37BD4680BC704780B483B0F5
:1028200000AF78600B467B8013467B707B78002B73
:1028300008D07B689B899AB27B8813439AB27B68E5
:102840009A8109E07B689B899AB27B88DB439BB2C3
:1028500013409AB27B689A8100BF0C37BD4680BC9A
:10286000704780B485B000AF78600B467B80002352
:10287000FB817B681B8BFB81FB8923F00803FB81B9
:10288000FA897B881343FB817B68FA891A8300BF2E
:102890001437BD4680BC704780B485B000AF786007
:1028A0000B467B800023FB817B681B8BFB81FB89B4
:1028B00023F40063FB817B881B029AB2FB891343DC
:1028C000FB817B68FA891A8300BF1437BD4680BC40
:1028D000704780B485B000AF78600B467B800023E2
:1028E000FB817B689B8BFB81FB8923F00803FB81C9
:1028F000FA897B881343FB817B68FA899A8300BF3E
:102900001437BD4680BC704780B485B000AF786096
:102910000B467B800023FB817B689B8BFB81FB89C3
:1029200023F40063FB817B881B029AB2FB8913436B
:10293000FB817B68FA899A8300BF1437BD4680BC4F
:10294000704780B483B000AF78600B467B807B8893
:10295000DB439AB27B681A8200BF0C37BD4680BC4D
:102960007047000080B58CB000AF786039600023FC
:10297000FB620023BB6200237B6200233B620023D7
:10298000FB617B68FB617B681B8A9BB2FB62FA6A16
:102990004CF6FF731340FB623B68DB881A46FB6A08
:1029A0001343FB62FB6A9AB27B681A827B689B893D
:1029B0009BB2FB62FA6A4EF6F3131340FB623B686C
:1029C0009A883B681B8913439AB23B685B8913431F
:1029D0009BB21A46FB6A1343FB62FB6A9AB27B689E
:1029E0009A817B689B8A9BB2FB62FA6A4FF6FF432F
:1029F0001340FB623B689B891A46FB6A1343FB62E8
:102A0000FB6A9AB27B689A8207F108031846FFF7BF
:102A1000A1F9FB692E4A934202D17B69BB6201E0B6
:102A20003B69BB627B689B899BB21BB2002B0CDAB3
:102A3000BA6A13469B0013449A001A443B681B6809
:102A40005B00B2FBF3F37B620BE0BA6A13469B00B8
:102A500013449A001A443B681B689B00B2FBF3F3D3
:102A60007B627B6A1B4AA2FB03235B091B01FB629F
:102A7000FB6A1B09642202FB03F37A6AD31A3B62E6
:102A80007B689B899BB21BB2002B0CDA3B6ADB0094
:102A90003233104AA2FB03235B0903F00703FA6AEF
:102AA0001343FB620BE03B6A1B013233094AA2FB72
:102AB00003235B0903F00F03FA6A1343FB62FB6A0B
:102AC0009AB27B681A8100BF3037BD4680BD00BF17
:102AD000003801401F85EB5180B483B000AF7860AF
:102AE0000B46FB70FB78002B08D07B689B899BB260
:102AF00043F400539AB27B689A8107E07B689B8914
:102B00009BB223F400539AB27B689A8100BF0C37C2
:102B1000BD4680BC704780B487B000AF78600B467C
:102B20007B8013467B7000233B610023FB60002306
:102B3000BB6000237B617B687B617B88DBB25B09C8
:102B4000DBB23B617B8803F01F03FB600122FB6863
:102B500002FA03F3BB603B69012B03D17B690C33A1
:102B60007B6109E03B69022B03D17B6910337B61F8
:102B700002E07B6914337B617B78002B06D07B6994
:102B80007A691168BA680A431A6006E07B697A6953
:102B90001168BA68D2430A401A6000BF1C37BD46AC
:102BA00080BC704780B483B000AF78600B467B80F8
:102BB0007B88C3F308039AB27B689A8000BF0C3706
:102BC000BD4680BC704780B483B000AF78607B683E
:102BD0009B889BB2C3F308039BB218460C37BD46D3
:102BE00080BC704780B487B000AF78600B467B80B4
:102BF0000023FB6000237B610023BB600023FB7488
:102C00007B88DBB25B09DBB2BB607B8803F01F0310
:102C10007B6101227B6902FA03F37B61BB68012BB4
:102C200007D17B689B899BB21A467B6913407B6105
:102C300011E0BB68022B07D17B681B8A9BB21A4646
:102C40007B6913407B6106E07B689B8A9BB21A46D6
:102C50007B6913407B617B881B0A9BB2FB6001226E
:102C6000FB6802FA03F3FB607B681B889BB21A4681
:102C7000FB681340FB607B69002B05D0FB68002BD1
:102C800002D00123FB7401E00023FB74FB7C184697
:102C90001C37BD4680BC704780B483B000AF03468C
:102CA000FB71084997F907305B09FA7902F01F02B6
:102CB000012000FA02F241F8232000BF0C37BD4684
:102CC00080BC704700E100E080B483B000AF0346F1
:102CD0003960FB7197F90730002B0BDA0D49FB794E
:102CE00003F00F03043B3A68D2B21201D2B20B4494
:102CF0001A7609E0084997F907303A68D2B212010A
:102D0000D2B20B4483F8002300BF0C37BD4680BC11
:102D1000704700BF00ED00E000E100E080B400AFCC
:102D2000BFF34F8F0549054BDB6803F4E062044BAA
:102D30001343CB60BFF34F8FFEE700BF00ED00E011
:102D40000400FA0580B582B000AF78607B68B3F10B
:102D5000807F01D3012311E00A4A7B6823F07F437F
:102D6000013B53600F214FF0FF30FFF7ADFF054BE4
:102D700000229A60034B07221A6000231846083786
:102D8000BD4680BD10E000E080B483B000AF786045
:102D90007B681A0913469B0013445B001A467B6844
:102DA00003F00F03134418460C37BD4680BC704730
:102DB00080B483B000AF0346FB71FB790D4AA2FBE0
:102DC0000323DB08DBB21B0158B2FA79094BA3FBE2
:102DD0000213D9080B469B000B445B00D31ADBB2ED
:102DE0005BB203435BB2DBB218460C37BD4680BC16
:102DF000704700BFCDCCCCCC80B483B000AF78603E
:102E00007B681B789BB21B029AB27B6801331B78EC
:102E10009BB213439BB218460C37BD4680BC70472B
:102E200080B485B000AF78607B681B78FB737B68EB
:102E30005A787B681A707B680133FA7B1A7000BF7E
:102E40001437BD4680BC704780B584B000AF012107
:102E50000120FFF74DF847233B8000237B804FF68E
:102E6000FF73BB800023FB8000233B723B46194667
:102E70004FF08040FFF7D6F901214FF08040FFF777
:102E800060FD002201214FF08040FFF7C7FC1C23AA
:102E90003B7307237B730023BB730023FB7307F192
:102EA0000C031846FEF754FA01214FF08040FFF75B
:102EB00071FC00BF1037BD4680BD000080B500AF7B
:102EC00000224FF408710448FEF74BFB0021024832
:102ED000FEF7B5FB00BF80BD0024014080B582B085
:102EE00000AF78607B68D9B2022301220D48FEF75B
:102EF000C1FB02210B48FEF7ABFC01210948FEF79C
:102F00009EFB00BF02210748FEF789FC0346002B09
:102F1000F8D00448FEF777FC034618460837BD464C
:102F200080BD00BF0024014080B582B000AF786052
:102F300002210548FEF78CFC7868FFF7CFFF0346B7
:102F400018460837BD4680BD0024014080B500AF5B
:102F50004FF408710248FEF78AFC00BF80BD00BF35
:102F60000024014080B586B000AF4FF40040FEF76A
:102F700093FE01214FF40070FEF79CFF1F48FEF7FF
:102F800049FA00237B6000233B7200237B724FF4DD
:102F90006023FB6000233B6101233B753B1D194609
:102FA0001648FEF771FA01211448FEF7BFFA1348DC
:102FB000FEF7F9FA00BF1148FEF704FB0346002BA9
:102FC000F9D10E48FEF715FB00BF0C48FEF720FBB9
:102FD0000346002BF9D1FFF771FF12233B70022348
:102FE0007B700023BB700023FB703B461846FEF746
:102FF000AFF900BF1837BD4680BD00BF00240140B7
:1030000080B582B000AF8023FB80FB883B8000232B
:10301000FB703B4619460348FEF772FD00BF0837B8
:10302000BD4680BD0008014080B483B000AF0346B8
:103030000A46FB711346BB80FB79032B1BD801A208
:1030400052F823F0553000085D3000086530000864
:103050006D3000080B4ABB8893860DE0094ABB8897
:10306000138709E0074ABB88938705E0054ABB88B8
:10307000A2F8403000E000BF00BF0C37BD4680BC66
:10308000704700BF002C014080B58AB000AF0346F6
:103090000A46FB711346BB8001214FF40060FEF726
:1030A00009FF07F11C031846FFF73AFB2F23BB83E8
:1030B0000023FB8340F2E7333B8400237B8400231F
:1030C00087F8243007F11C0319463548FFF7AAF8A2
:1030D00007F10C031846FFF73CFB6023BB81BB885C
:1030E0007B820123FB810023BB82FB7903F0030376
:1030F000032B50D801A252F823F000BF0D31000875
:1031000023310008393100084F31000807F10C0362
:1031100019462348FFF702F908212148FFF7A1FBD0
:1031200020E007F10C0319461D48FFF783F9082139
:103130001B48FFF7B1FB15E007F10C0319461848CF
:10314000FFF700FA08211648FFF7C3FB0AE007F172
:103150000C0319461248FFF77BFA08211048FFF7C5
:10316000D3FB00BF01210E48FFF733FB01210C48C0
:10317000FFF710FBFB790B4A52F823309BB23B81DF
:103180001823FB720323BB7207F108031946064894
:10319000FEF7B6FC00E000BF2837BD4680BD00BF8B
:1031A000002C0140D09700080008014080B485B091
:1031B00000AF786039603B68FB60FA687B681A6032
:1031C00000BF1437BD4680BC704780B485B000AFE7
:1031D00078607B681B68FB60FB6818461437BD4647
:1031E00080BC704780B588B000AFF860B960134606
:1031F000FB80BB68FB61FA88FB6813447B61FEF7C8
:103200009BFBFB68BB610CE0BB691B683B613969D8
:10321000F869FFF7CBFFBB690433BB61FB6904337B
:10322000FB61BA697B699A42EED3002318462037C6
:10323000BD4680BD80B584B000AF78600B467B8012
:1032400013463B803B8803F500339B02FB607B8881
:103250001A467968F868FFF7C5FF03461846103725
:10326000BD4680BD80B58AB000AFF860B960134636
:10327000FB800423FB75FB687B62FA88FB681344C0
:10328000FB61BB683B62FEF745FB3420FEF7DEFBCB
:10329000F868FEF75FFB0346FB750FE0386AFFF73F
:1032A00094FFB8613B6A04333B62B969786AFEF700
:1032B00083FB0346FB757B6A04337B627A6AFB6996
:1032C0009A4203D2FB7DDBB2042BE7D0FEF734FB3E
:1032D000FB7DDBB218462837BD4680BD80B584B083
:1032E00000AF78600B467B8013463B803B8803F53C
:1032F00000339B02FB607B881A467968F868FFF709
:10330000B1FF034618461037BD4680BD80B483B078
:1033100000AF0346FB8002E0FB880133FB80FB88A3
:1033200003F003039BB2002BF6D1FB8818460C3741
:10333000BD4680BC7047000080B487B000AF7860A5
:1033400039603B687B6179697C4BA3FB01235A0997
:1033500013461B019B1A9B00CA1AD2B27B681A70D3
:103360007B69764AA2FB03235B097B617B68581C5F
:103370007969724BA3FB01235A0913461B019B1A5F
:103380009B00CA1AD3B203707B696C4AA2FB032369
:103390005B097B617B68981C7969694BA3FB0123FE
:1033A0001A0913465B001344DB00CA1AD3B2037038
:1033B0007B69634AA2FB03231B097B617B68D81CE2
:1033C0007B699A1D5F4BA3FB0213D11A49080B447A
:1033D00099080B46DB005B1AD11ACBB203700023AD
:1033E0003B610023BB6002E03B6901333B613B6909
:1033F00003F00303002B0AD13A69534BA3FB0213DA
:103400005B09642101FB03F3D31A002B0BD13A694A
:103410004D4BA3FB0213DB094FF4C87101FB03F30F
:10342000D31A002B02D14FF4B77301E040F26D13B1
:10343000BA681344BB60BA687B699A42D4D97B6886
:1034400006333A69D2B21A703B6903F00303002BCA
:103450000AD13A693C4BA3FB02135B09642101FBCF
:1034600003F3D31A002B0BD13A69374BA3FB02139A
:10347000DB094FF4C87101FB03F3D31A002B02D10F
:103480004FF4B77301E040F26D13BA68D31ABB6012
:103490007A69BB68D31A7B610023BB600023FB738E
:1034A0000023BB730123FB7333E0FB7B022B21D191
:1034B0003B6903F00303002B0AD13A69224BA3FBBB
:1034C00002135B09642101FB03F3D31A002B0BD118
:1034D0003A691D4BA3FB0213DB094FF4C87101FBD2
:1034E00003F3D31A002B02D11D23BB7306E01C2368
:1034F000BB7303E0FB7B154AD35CBB73BA7B7B6970
:103500009A420AD8BB7B7A69D31A7B61FB7B013371
:10351000FB73FB7B0C2BC8D900E000BF7B68053335
:10352000FA7B1A707B6804337A69D2B20132D2B264
:103530001A7000BF1C37BD4680BC704789888888D8
:10354000ABAAAAAA254992241F85EB51E897000847
:1035500080B487B000AF78607B6806331B787B61EE
:103560007B695C4A02FB03F37B6100237B8227E0DB
:103570007B8A03F003039BB2002B0BD17B8A564A54
:10358000A2FB03125209642101FB02F29B1A9BB2B7
:10359000002B0CD17B8A504AA2FB0312D2094FF4B4
:1035A000C87101FB02F29B1A9BB2002B05D17B690B
:1035B00003F5A83303F5C0737B617B8A01337B82FB
:1035C0007B6806331B789BB27A8A9A42D0D3002359
:1035D0007B8240E07B8A012B2DD17B6806331B78F0
:1035E00003F00303DBB2002B0DD17B6806331B789D
:1035F000394AA2FB03125209642101FB02F29B1A11
:10360000DBB2002B10D17B6806331B781A46324B95
:1036100083FB0213D911D317CB1A4FF4C87101FBE6
:1036200003F3D31A002B06D17B6903F5181303F5B6
:103630006E537B610CE07B8A284AD35CFB60FB689D
:10364000274A02FB03F3FB607A69FB6813447B6142
:103650007B8A01337B827B6805331B789BB27A8A35
:103660009A42B7D37B6804331B78013BFB60FB684D
:103670001B4A02FB03F3FB607A69FB6813447B611E
:103680007B6802331B78FB60FB684FF4616202FBCE
:1036900003F3FB607A69FB6813447B617B68013349
:1036A0001B78FB60FA6813461B019B1A9B00FB60AA
:1036B0007A69FB6813447B617B681B78FB607A69DD
:1036C000FB6813447B617B6918461C37BD4680BC90
:1036D000704700BF8033E1011F85EB51E897000878
:1036E0008051010080B485B000AF0346FB71FB79C7
:1036F0001B09FB73FB7903F00F03BB73FB7B1A46BB
:10370000920013445B00DAB2BB7B1344DBB2184671
:103710001437BD4680BC704780B483B000AF034609
:10372000FB71FB790D4AA2FB0323DB08DBB21B0113
:1037300058B2FA79094BA3FB0213D9080B469B0038
:103740000B445B00D31ADBB25BB203435BB2DBB268
:1037500018460C37BD4680BC704700BFCDCCCCCCE2
:1037600090B585B000AF78600B46FB700023FB730B
:1037700010E0FB7B7A6813441B78BB73FB7B7A6891
:10378000D418BB7B1846FFF7C7FF03462370FB7BAB
:103790000133FB73FA7BFB789A42EAD300BF1437FC
:1037A000BD4690BD90B585B000AF78600B46FB700C
:1037B0000023FB7310E0FB7B7A6813441B78BB7318
:1037C000FB7B7A68D418BB7B1846FFF78BFF034658
:1037D0002370FB7B0133FB73FA7BFB789A42EAD3BD
:1037E00000BF1437BD4690BD80B584B000AF78608F
:1037F000FEF7B2FC08217868FFF7D4FF7868FFF77E
:10380000A7FEF860F868FEF775FCFEF7A5FC00BFA0
:103810001037BD4680BD000080B582B000AF074ABA
:103820003B4692E8030083E803003B461846FFF757
:10383000DBFF00BF0837BD4680BD00BFE097000832
:1038400080B500AF0120FEF7AFFC0346002B07D088
:103850000120FEF7D1FC034B01221A70FEF77CFC1D
:1038600000BF80BD2507002080B500AF01214FF0CB
:10387000C050FEF73DFB0120FEF7FEF9FEF70CF805
:103880000120FEF725FA00BF4120FEF77DFB03462D
:10389000002BF9D04FF48070FEF73AFA0120FEF7C2
:1038A00049FAFEF769FCFEF757FC01210120FEF7FB
:1038B000B3FBFEF751FC47F6FF70FEF733FCFEF753
:1038C0004BFC00BF80BD80B582B000AF4FF4C0603C
:1038D000FDF72CFD03233B7101237B710023BB719A
:1038E0000123FB713B1D1846FDF732FD00BF083771
:1038F000BD4680BD80B582B000AF0023FB710121C1
:103900004FF0C050FEF7F4FA0120FEF7B5F9FFF7CB
:10391000DAFF0420FDF7E6FF03461A464AF2A553F4
:103920009A4206D0FFF7A0FFFFF776FF0423FB7152
:1039300010E07B20FEF728FB0346002B02D17A2003
:10394000FEF722FBFEF718FC01210120FEF764FBC5
:10395000FEF702FCFEF752FBFB7918460837BD461E
:1039600080BD000080B586B000AF01214FF48040DB
:10397000FEF7A0FA00211B48FFF7AEF84FF40073E2
:10398000BB800123BB711823FB713B1D19461648F0
:10399000FEF7B6F84FF48063BB800123BB710423AC
:1039A000FB713B1D19461048FEF7AAF84FF4E133AE
:1039B000BB600023BB810023FB8100233B820C23DF
:1039C0007B820023BB8207F1080319460548FEF7F6
:1039D000C9FF01210348FFF77FF800BF1837BD4634
:1039E00080BD00BF003801400008014080B586B0AE
:1039F00000AF01214FF40030FEF77AFA00211E4893
:103A0000FFF76AF80423BB800323BB711823FB7103
:103A10003B1D19461948FEF773F80823BB800323A2
:103A2000BB710423FB713B1D19461448FEF768F86F
:103A30004FF4E133BB600023BB810023FB810023F3
:103A40003B820C237B820023BB8207F108031946CB
:103A50000948FEF787FF012240F225510648FFF78B
:103A60005AF82620FFF718F901210348FFF734F828
:103A700000BF1837BD4680BD00440040000801402B
:103A800080B582B000AF3023BB801023FB710323CD
:103A9000BB713B1D19461748FEF732F8154A154B06
:103AA000DB6823F03003D360C023BB801023FB719D
:103AB0000323BB713B1D19460E48FEF721F808236E
:103AC000BB801023FB710323BB713B1D19460948C2
:103AD000FEF716F84FF40043BB801023FB7103235D
:103AE000BB713B1D19460448FEF70AF800BF0837B2
:103AF000BD4680BD000C01400008014080B483B089
:103B000000AF78600BE00A4B00221A7000BF084B30
:103B10001B78DBB2002BFAD07B68013B7B607B68B3
:103B2000002BF0D100BF0C37BD4680BC704700BFF2
:103B30002407002080B582B000AF094B01221A7023
:103B40001423FB714FF40053BB800123BB713B1D59
:103B500019460448FDF7D4FF00BF0837BD4680BDB5
:103B600079070020000C014080B483B000AF204BE7
:103B70004FF400525A614FF0804300229A8400BFF4
:103B80004FF080439B8C9BB2B3F5FA7FF8D3184B70
:103B90004FF400521A614FF0804300229A8400BF14
:103BA0004FF080439B8C9BB2452BF9D9104B9B68FF
:103BB00003F400537B607B68002B07D10D4B002280
:103BC0001A704FF0804300229A8404E0094B0122CE
:103BD0001A70012307E04FF080439B8C9BB2B3F532
:103BE000D77FF8D3002318460C37BD4680BC7047FA
:103BF000000C01407907002080B400AF104B4FF457
:103C000000525A614FF0804300229A8400BF4FF067
:103C100080439B8C9BB20E2BF9D9094B4FF4005279
:103C20001A614FF0804300229A8400BF4FF0804316
:103C30009B8C9BB2312BF9D900BFBD4680BC70472D
:103C4000000C014080B400AF104B4FF400525A6199
:103C50004FF0804300229A8400BF4FF080439B8C3A
:103C60009BB23B2BF9D9094B4FF400521A614FF02C
:103C7000804300229A8400BF4FF080439B8C9BB20C
:103C8000042BF9D900BFBD4680BC7047000C014031
:103C900080B582B000AF0346FB71FB79002B02D0E8
:103CA000FFF7AAFF01E0FFF7CDFF00BF0837BD46D1
:103CB00080BD000080B483B000AF1C4B4FF40052B5
:103CC0005A614FF0804300229A8400BF4FF0804336
:103CD0009B8C9BB2042BF9D9144B4FF400521A6100
:103CE0004FF0804300229A8400BF4FF080439B8CAA
:103CF0009BB2042BF9D90D4B9B6803F400537B60F6
:103D00004FF0804300229A8400BF4FF080439B8C89
:103D10009BB2362BF9D97B68002B01D0012300E040
:103D2000002318460C37BD4680BC7047000C01408C
:103D300080B584B000AF0346FB710023FB730FE036
:103D4000FA79FB7B42FA03F303F00103002B02D064
:103D5000FFF752FF01E0FFF775FFFB7B0133FB73B9
:103D6000FB7B072BECD900BF1037BD4680BD80B56B
:103D700082B000AF0023BB710023FB7110E0FFF79E
:103D800099FF03467B717A79FB7902FA03F35AB201
:103D900097F9063013435BB2BB71FB790133FB71BA
:103DA000FB79072BEBD9BB7918460837BD4680BD98
:103DB00080B400AF034B00221A7000BFBD4680BC28
:103DC000704700BF7C07002080B483B000AF03467B
:103DD000FB71084B1A78FB795340DBB21A46064B4D
:103DE0009A5C044B1A70034B1B7818460C37BD467F
:103DF00080BC70477C070020C004010880B586B0F5
:103E000000AF0123FB7500233B610023FB6001230E
:103E1000FB710023BB605A4B00221A70594B1B7870
:103E2000002B40F09980FFF79FFE0346002B07D040
:103E3000554B00221A70534B00221A7000239BE04E
:103E4000F020FFF775FFFFF735FF03467B71FFF7A3
:103E500031FF03463B717B79012B02D13B79012B6A
:103E600065D07A793B799A4202D07B79BB7120E0A8
:103E7000454B1B78FA7D9A420DD2444AFB681344A5
:103E80001A78FB791340DBB2002B14BF0123002307
:103E9000DBB2BB7108E03C4B1B78FA7D9A420CBF49
:103EA00001230023DBB2BB71BB79002B01D1FB7D69
:103EB0003B61BB79012B0CD1344AFB6813441A785F
:103EC000FB791343D9B2314AFB6813440A461A708E
:103ED00010E02E4AFB6813441B785AB297F907305A
:103EE000DB435BB213405BB2D9B2284AFB68134490
:103EF0000A461A70BB791846FFF7CAFEFB7D0133EC
:103F0000FB75FB795B00FB71FB79002B0BD11F4A22
:103F1000FB6813441B781846FFF756FFFB68013314
:103F2000FB600123FB71FB68072B8CDD00E000BF09
:103F3000FB7D402B10D9124B1B78002B0CD13B6919
:103F4000DAB2114B1A70104B1B78002B02D10D4BBB
:103F500001221A700123BB60BB68002B03D00B4BFE
:103F60001B78002B07D1084B00221A70054B00224A
:103F70001A700023BB60BB6818461837BD4680BD69
:103F80007C0700207B0700207A07002080070020A4
:103F900080B584B000AF3B4683E80300FFF7E4FD43
:103FA0005520FFF7C5FE0023FB6009E03A46FB6899
:103FB00013441B781846FFF7BBFEFB680133FB6018
:103FC000FB68072BF2DD002318461037BD4680BD85
:103FD00080B500AF054B00221A70054B00221A7005
:103FE000FFF70CFF0346184680BD00BF7A0700208C
:103FF0007B07002080B500AFFFF700FF034618469F
:1040000080BD000080B586B000AF7860204B0022F4
:104010001A70FFF7DDFF78612DE007233B6102E0B6
:104020003B69013B3B613B69002BF9DA07233B61AC
:104030000CE0184A3B691344197807F108023B6900
:1040400013440A461A703B69013B3B613B69002BF4
:10405000EFDA0F4B1B785A1CD1B20D4A11700E4A81
:10406000DB00134407F1080292E8030083E8030031
:10407000FFF7C0FF78617B69002BCED1044B1A7823
:104080007B681A70044B18461837BD4680BD00BFC8
:1040900078070020800700202807002080B500AFA7
:1040A000FFF748FD0548FFF7ADFF0246044B1A60D5
:1040B000032000F007F800BF80BD00BF15000020FE
:1040C000C407002080B582B000AF0346FB71104AE0
:1040D000FB791370FFF748FDCC20FFF729FE4E2037
:1040E000FFF726FE4B20FFF723FE4620FFF720FEBA
:1040F000074B1B785B015BB243F01F035BB2DBB283
:104100001846FFF715FE00BF0837BD4680BD00BF4B
:104110001400002080B582B000AF3B4683E8030066
:104120003B4693E80300FFF733FF4420FFF700FE10
:1041300000BF0837BD4680BD80B582B000AF002308
:10414000FB710023FB7111E00D4B1A68FB79DB005A
:1041500013441A68002111465B6800221A4608467B
:104160001146FFF7D7FFFB790133FB71054B1B7835
:10417000FA799A42E8D300BF0837BD4680BD00BF38
:10418000C40700201500002080B586B000AF78601D
:10419000FFF70EFE00237B6116E0FFF7E8FD034604
:1041A000194607F108027B6913440A461A7007F1A1
:1041B00008027B6913441B781846FFF705FE034687
:1041C000FB747B6901337B617B69082BE5DDFB7C3C
:1041D000002B01D004230EE007F108031846FEF778
:1041E0001FFE07F108031846FEF706FE03461A46AF
:1041F0007B681A80002318461837BD4680BD80B5FD
:1042000084B000AF07F1080383E803007A60FFF78A
:10421000ABFC07F1080393E80300FFF7B9FEBE20EB
:10422000FFF786FD7868FFF7AFFF034618461037A3
:10423000BD4680BD80B586B000AF78603960002390
:10424000FB7504233B610023FB600023FB751FE02B
:10425000164B1A68FB7DDB001344FA7D5200796827
:104260000A441968002008465B6800211946FFF7D8
:10427000C6FF38613B69002B07D0FB7D012202FAA3
:1042800003F31A46FB681343FB60FB7D0133FB75A8
:10429000074B1B78FA7D9A42DAD33B68FA681A60BA
:1042A0003B6918461837BD4680BD00BFC4070020D3
:1042B0001500002080B500AF114B1B78032B1CD8D4
:1042C00001A252F823F000BFD9420008E1420008E1
:1042D000E9420008F34200085F20FFF70FFC0DE001
:1042E000BE20FFF70BFC09E04FF4BE70FFF706FCA1
:1042F00004E040F2EE20FFF701FC00BF00BF80BDEC
:104300001400002080B500AFFFF778FD03461A4681
:10431000044B1A604FF42F70FFF7F0FB0023184690
:1043200080BD00BFC807002080B584B000AF7860B2
:104330000023BB600323FB6004220021786802F0A5
:1043400034FA0A4B1B68002B0BD007F108031946FF
:104350007868FFF76FFFF860FB68002B01D002233D
:1043600000E0FB6818461037BD4680BDC807002036
:1043700080B584B000AF78602E21786802F067FACB
:10438000F860FB68002B0AD17868FBF7E1FE034672
:104390001A467B6813440C4A1068186010E0FB68EA
:1043A00002331B78002B0BD17868FBF7D1FE034654
:1043B0001A467B68134405491A460B461B8813802E
:1043C00000BF1037BD4680BD109600081496000847
:1043D00090B587B000AF78600B467B800023FB75FB
:1043E000B7F90230002B04DA0123FB757B885B42AE
:1043F0007B807B881B099BB2FB73FB7B1846FCF719
:1044000045FC03463B617B88BB81BB8903F00F03FE
:10441000BB81BB891846FBF7F5FF4FF000021E4B2E
:10442000FCF756F803460C4618462146FCF728FBD5
:104430000346BB60B9683869FCF778FB03463B610B
:10444000FB7D002B06D039694FF00000FCF76CFBB8
:1044500003463B613869FBF7E7FF03460C461A4603
:1044600023460E49786802F0A9F97868FFF780FFC3
:104470007868FBF76DFE02467B689C182046FBF7C8
:1044800067FE03462344064A1188927819809A7081
:1044900000BF1C37BD4690BD0000B03F1896000815
:1044A0002096000880B500AF012140F2FD10FDF715
:1044B00001FD00BF80BD0000B0B483B000AF002399
:1044C000FB717AE00023BB713BE0FA79BB79F879A4
:1044D000B9793E4C40012044014401F580610978DE
:1044E0004900C8B2394952010A44134403F58063B4
:1044F00002461A70FA79BB79F879B979334C4001E0
:104500002044014401F58061097848B2FC79B97909
:1045100001312E4D64012C44214401F5806109785C
:10452000C909C9B249B2014349B2C8B227495201C7
:104530000A44134403F5806302461A70BB790133C1
:10454000BB71BB791E2BC0D9FA79BB79F879B979DF
:104550001E4C40012044014401F580610978490066
:10456000C8B21A4952010A44134403F58063024653
:104570001A70FA79BB79F879B979144C4001204462
:10458000014401F58061097848B21049D1F8A84981
:10459000F97924FA01F149B201F0010149B201436C
:1045A00049B2C8B2094952010A44134403F5806371
:1045B00002461A70FB790133FB71FB791F2B81D9FD
:1045C00000BF0C37BD46B0BC704700BF141A0020B6
:1045D00090B482B000AF0023BB7128E01F23FB71B1
:1045E00012E0FA79BB79F979481EB979274C400174
:1045F000204401440878254952010A4413440246E4
:104600001A70FB79013BFB71FB79002BE9D1FA7938
:10461000BB79B9791D48014491F8E0071B49520163
:104620000A44134402461A70BB790133BB71BB794B
:104630001F2BD3D90023BB711FE01F23FB7116E092
:10464000FA79BB79F979481EB979104C40012044B8
:10465000014401F5806108780C4952010A44134471
:1046600003F5806302461A70FB79013BFB71FB790D
:10467000002BE5D1BB790133BB71BB791F2BDCD992
:1046800000BF0837BD4690BC704700BF141A002019
:1046900080B500AF4FF480620249034802F07AF817
:1046A00000BF80BD141E0020141A002080B586B003
:1046B00000AF0346FB71FB79FB750023BB750EE071
:1046C000BB7DFA7D013AD2B207F118010B4403F821
:1046D0000C2CFB7D0433FB75BB7D0133BB75BB7DAF
:1046E000072BEDD90023FB7514E0FB7D40335B0104
:1046F0000C4A9818FB7D07F11802134413F80C3C80
:104700005B01084A13442022194602F043F8FB7D5E
:104710000133FB75FB7D072BE7D900BF1837BD467A
:1047200080BD00BF141A002080B582B000AF234BBB
:1047300093F802391846FFF7B9FF0023BB7122E056
:104740000423FB7119E0FB795A1EBB791B49520106
:104750000A44134403F500631878FB79DA1CBB792B
:10476000164952010A44134403F500631B781946A5
:1047700000F026F8FB79013BFB71FB79002BE2D1BD
:10478000BB790133BB71BB791F2BD9D90B4B93F884
:1047900002395A1CD1B2094A82F80219184600F0AF
:1047A0004DF8064B93F80239042B03D9034B012231
:1047B00083F8022900BF0837BD4680BD141A0020C7
:1047C00080B485B000AF03460A46FB711346BB7147
:1047D0000023FB7326E097F90730002B03DA154B13
:1047E00008221A6102E0134B08225A6197F9063039
:1047F000002B04DA104B4FF400421A6103E00E4B19
:104800004FF400425A610B4B20221A61094B2022BF
:104810005A61FB795B00FB71BB795B00BB71FB7B71
:104820000133FB73FB7B072BD5D900BF1437BD4683
:1048300080BC7047000C01400008014080B483B088
:1048400000AF0346FB71FB79013B032B2ED801A27D
:1048500052F823F0654800087B48000889480008A2
:1048600097480008174B40225A61164B80225A6124
:10487000154B002283F8042919E0124B40225A619B
:10488000104B80221A6112E00E4B40221A610D4B30
:1048900080225A610BE00B4B40221A61094B8022A7
:1048A0001A61094B012283F8042900E000BF054B7F
:1048B00010221A61034B10225A6100BF0C37BD460B
:1048C00080BC7047000C0140141A002080B483B0F3
:1048D00000AF254BD3F800341B781A46234BD3F88E
:1048E000B8391B78D31A9BB2204AD2F8B8290132C2
:1048F000127892B202FB03F39BB20333BB801A4BD4
:10490000D3F800340133184AC2F80034174BD3F8F7
:10491000B829BB8813441A78144B83F80329002361
:10492000FB7113E0FB79114AD2F8B819BA88013249
:10493000BA80BA880A441278D243D1B20B4A1344DF
:104940000A4683F80529FB790133FB71074BD3F83D
:10495000B83901331B78FA799A42E3D300BF0C3798
:10496000BD4680BC704700BF940D0020141A002083
:1049700080B483B000AF0023FB71184BD3F8B83973
:104980009B78FB7115E0154BD3F8A8391B02134A2D
:1049900092F801291146FA790A44013A0F490A446A
:1049A00092F8052913430D4AC2F8A839FB79013B57
:1049B000FB71FB79002BE6D1084B93F80129074BDB
:1049C000D3F8B83902331B781344DAB2034B83F8B7
:1049D000012900BF0C37BD4680BC7047141A002067
:1049E00080B400AF0C4B93F8B239042B06D0052BE2
:1049F00009D1094B094AC3F8B82909E0064B084A0E
:104A0000C3F8B82904E0044B044AC3F8B82900BF2E
:104A100000BFBD4680BC7047141A0020F8970008FC
:104A2000DCC9000880B582B000AF0023FB71002311
:104A3000BB7100237B71974B93F8AF39002B47D1A3
:104A4000944B012283F8AF29924B0022A3F8AC29A2
:104A5000904B072283F8AE298E4B002283F8012960
:104A60004FF4806200218C4801F09FFE8A4801F0DB
:104A7000F5F80346002B40F0CF80874801F048FB53
:104A8000854B854AC3F80424FFF7AAFF01F028FCF0
:104A90000346002B40F0C2807F4B804AC3F80024BD
:104AA000FFF714FFFFF764FF00F0F4FA00233B71F7
:104AB00004E0FFF739FE3B7901333B713B79032B6F
:104AC000F7D9744B4FF4FA62A3F8BC290023DCE059
:104AD0000023FB7146E0FB796E4AB2F8AC2911461F
:104AE0006C4A5B0113440B4403F580631B781A4640
:104AF000684B93F8AE3942FA03F3BB71BB7923F0EC
:104B00000103BB71634BD3F8A829FB7922FA03F3A5
:104B10005BB203F001035AB297F9063013435BB25C
:104B2000BB715C4B93F8AE397B7106E0BB795B00DF
:104B3000BB71BB7943F00103BB717B795A1E7A715B
:104B4000002BF3D1FB79534AB2F8AC291146514AF4
:104B50005B0113440B4403F58063BA791A70FB7947
:104B60000133FB71FB791F2BB5D90023FB7119E0D1
:104B7000484BB3F8AC39DBB201337B710CE0FA7906
:104B80007B79444952010A44134403F58063FF22B0
:104B90001A707B7901337B717B791F2BEFD9FB79FD
:104BA0000133FB71FB791F2BE2D93A4B93F8AE39F5
:104BB0005A1ED1B2374A82F8AE19002B0BD1354BB1
:104BC000072283F8AE29334BB3F8AC3901339AB2DC
:104BD000304BA3F8AC292F4B93F801292D4BD3F878
:104BE000B83902331B78B2FBF3F3DAB2294B93F8EE
:104BF00003399A4242D3274B002283F80129264BDE
:104C0000D3F800341B78002B36D1234BD3F804346F
:104C10001B78002B14D104E000BF02E000BF00E0CD
:104C200000BF1C4B002283F8AF291A4B012283F8E6
:104C3000B029184B40F6B832A3F8BC29032324E06E
:104C400001F04EFB0346002BEAD1134B134AC3F885
:104C50000024FFF73BFE0F4B0022A3F8AC290D4BBD
:104C6000072283F8AE29FFF783FE0A4B40F6B832DD
:104C7000A3F8BC29022308E0FFF728FEFFF778FE1F
:104C8000044B0522A3F8BC29002318460837BD466B
:104C900080BD00BF141A0020940D00209C1100203C
:104CA00080B582B000AF5B4B93F8AF39002B4CD18D
:104CB000594B00221A70574B202283F8B129554BCB
:104CC000012283F8AF29534B0022A3F8AC29514BA2
:104CD000072283F8AE294F4B002283F801294FF4B5
:104CE000806200214D4801F060FD4C4800F0B6FFA5
:104CF0000346002B50D1494801F00AFA474B474A76
:104D0000C3F80424FFF76CFE01F0EAFA0346002B17
:104D100044D1424B424AC3F80024FFF7D7FDFFF7C6
:104D200027FE00F0B7F90023FB7104E0FFF7FCFC5D
:104D3000FB790133FB71FB79032BF7D9354B4FF42A
:104D4000FA62A3F8BC29002360E0324B93F8B13932
:104D5000002B0AD12F4B202283F8B1292D4B40F68E
:104D6000B832A3F8BC29012350E02A4B93F8B1399B
:104D7000202B3CD100F08EF90023BB7104E0FFF73B
:104D8000D3FCBB790133BB71BB79032BF7D9224B21
:104D90001B78002B14D002E000BF00E000BF1D4BC9
:104DA000002283F8AF291B4B0222A3F8BC29194B20
:104DB000002283F8B029002328E07B79022B07D05A
:104DC000FFF730FE03467B717B79032BF5D100E0C2
:104DD00000BF7B79032B0AD10F4B01221A700D4BB8
:104DE000042283F8B0290B4B012283F8AF29FFF787
:104DF000EFFB084B3222A3F8BC29064B93F8B139DC
:104E0000013BDAB2034B83F8B12901231846083776
:104E1000BD4680BD141A002088070020940D002094
:104E20009C110020B0B500AF2A4B93F8AF39002B8E
:104E30003DD100F02FF930220021274801F0B5FCC8
:104E400040F22C520021254801F0AFFCFFF7C8FDCD
:104E5000214800F063FA224BDB78DBB2002B0CD048
:104E60001E4A204B14461D460FCD0FC495E807007F
:104E700003C42270194800F0F3F91749174801F0EC
:104E8000C1FC164800F0ECF9174B144AC3F8002493
:104E9000FFF71CFDFFF76CFD0E4B012283F8AF29D5
:104EA0000C4B4FF4FA62A3F8BC2900230FE000F08A
:104EB00085F80346032B09D1064B002283F8AF295E
:104EC000044B032283F8B029032300E00023184693
:104ED000B0BD00BF141A0020340D002004080020CB
:104EE000CC070020B8960008940D0020B0B582B021
:104EF00000AF2C4B93F8AF39002B3ED100F0CAF82D
:104F000030220021284801F050FC40F22C520021B0
:104F1000264801F04AFCFFF763FD234800F0A6FA9B
:104F20000346FB71FB79002B0CD1204A204B144621
:104F30001D460FCD0FC42B6823601B491B4801F091
:104F400061FC09E0194A1B4B14461D460FCD0FC4E6
:104F500095E8070003C42280144800F081F9164B3D
:104F6000124AC3F80024FFF7B1FCFFF701FD0D4B17
:104F7000012283F8AF2900230FE000F01FF8034659
:104F8000032B09D1074B002283F8AF29054B0422DC
:104F900083F8B029032300E0002318460837BD46F4
:104FA000B0BD00BF141A0020640D002004080020CA
:104FB000D4960008E8960008940D002080B500AF54
:104FC000314B93F8AF39002B2CD14FF48062002184
:104FD0002E4801F0EAFB2D4800F040FE2A4B01224A
:104FE00083F8AF2900F056F8FFF7FAFC40F22C5294
:104FF0000021274801F0D9FB2449254801F01FFC76
:10500000234800F081F8214B214AC3F80024FFF720
:105010005DFCFFF7ADFC1C4B4FF4FA62A3F8BC2912
:1050200000232EE0184B3222A3F8BC29164B93F82C
:105030000129154BD3F8B83902331B78B2FBF3F3CF
:10504000DAB2114B93F803399A4215D30E4B002272
:1050500083F801290D4BD3F800341B78002B09D1BC
:10506000094B002283F8AF29074B022283F8B029AD
:10507000032306E0FFF72AFCFFF71EFAFFF778FC90
:105080000023184680BD00BF141A0020940D002094
:105090000408002080B500AF4FF48062FF2108486B
:1050A00001F083FB4FF48062FF21064801F07DFB95
:1050B0004FF48072FF21044801F077FB00BF80BDF0
:1050C000141A0020141E00201422002080B500AF06
:1050D000FFF7E0FF0A4B002283F8AF29084B0022BC
:1050E00083F8B029064B0022C3F8B829044B0122EB
:1050F00083F80229034B4FF4FA62DA8000BF80BDC7
:10510000141A0020CC07002080B5ADF5A76D00AFC4
:105110003B1D18600023A7F836350023A7F8343567
:1051200007F1080340F22C520021184601F03DFB24
:1051300004E0B7F834350133A7F83435B7F834351F
:105140003A1D126813441B780A2BF2D0B7F8343595
:105150003A1D126813441B780D2BEAD0B7F834358A
:105160003A1D126813441B78202BE2D05EE0B7F89A
:1051700036355A1CA7F836251A46B7F83435591C67
:10518000A7F8341519463B1D1B680B44197807F125
:1051900008039954B7F8363507F108020021D154B5
:1051A00001F0D8FA0146B7F834353A1D12681344B5
:1051B0001B7801330B441B7803F09703002BD6D1E7
:1051C000B7F834353A1D126813440D21184601F022
:1051D00028FB0346002B0BD1B7F834353A1D126873
:1051E00013440A21184601F01CFB0346002B0DD086
:1051F00007F10803184600F033F80346A7F83635E0
:1052000004E0B7F834350133A7F83435B7F834354E
:105210003A1D126813441B780A2BF2D0B7F83435C4
:105220003A1D126813441B780D2BEAD0B7F83435B9
:105230003A1D126813441B78002BB1D107F1080303
:10524000184600F00DF807F108023B1D11461868DA
:1052500001F0F5FA0023184607F5A767BD4680BDA3
:1052600080B584B000AF78607868FAF771FF0346C4
:105270007B81294BD3F8B83903331B781A464FF496
:10528000807393FBF2F3BB817B89FB8102E0FB8996
:10529000013BFB81FB89013B7A6813441B78202B7F
:1052A000F5D07A89FB89D31AFB811B4BD3F8B83927
:1052B00003331B781A464FF4807393FBF2F102FB21
:1052C00001F29B1A002B02D0BB890133BB81FA8902
:1052D000BB899A4216D2BA89FB89D31ABB817B89D2
:1052E0007A68D018BB890133BB81BB891A4620215B
:1052F00001F05BFA7A89BB8913441A467B68134430
:1053000000221A707868FAF723FF03469BB218460A
:105310001037BD4680BD00BF141A002090B595B06F
:1053200002AF7860002387F8473007F10803302286
:105330000021184601F039FA07F13803082200214C
:10534000184601F032FAFCF7ADFE386407F1380375
:10535000396C1846FDF7F0FF07F1380308211846AD
:10536000FEF7FEF997F83D301846FDF70DFD0346B0
:10537000DBB287F83D3097F83A301846FDF704FD68
:105380000346DBB287F83A3097F83A30002B06D163
:10539000122387F83A30002387F847301CE097F84B
:1053A0003A300B2B03D8002387F847300CE0012359
:1053B00087F8473097F83A300C2B05D997F83A30F0
:1053C0000C3BDBB287F83A3097F83A301846FDF7D5
:1053D000EFFC034687F83A3097F83A30194697F8C9
:1053E00039301C4697F847301B4A52F8233007F1F2
:1053F0000800009323460A46184901F0DFF907F137
:1054000008031846FFF72CFF034687F8473097F844
:10541000473007F10802D01897F83B301A46104B76
:1054200053F8222097F83D3019460E4B53F821309F
:1054300097F83C1097F83E40019400910A4901F01A
:10544000BDF907F108031946786801F0F8F900235F
:1054500018464C37BD4690BD2C000020049700082C
:1054600034000020500000201C97000880B584B054
:1054700000AF7860FEF760FEFEF71CFF07F10C033B
:105480001846FEF751FF0346002B01D0012305E02B
:10549000BB8919467868FEF79BFF00231846103732
:1054A000BD4680BD80B500AF40F225510748FDF7ED
:1054B00099FB0346002B02D00448FDF784FB40F221
:1054C00027710248FDF78EFB00BF80BD0038014008
:1054D00080B582B000AF40F225513848FDF782FB1D
:1054E0000346002B24D03548FDF76DFB0346FB71C6
:1054F000334B93F83738DBB2002B15D1304BB3F870
:1055000032389BB2B3F5836F0ED22D4BB3F83238DD
:105510009BB25A1C91B22A4AA2F832181A46284B5A
:105520001344FA7983F81824254B002283F836288F
:1055300040F227712148FDF755FB0346002B38D078
:105540001F4BB3F830389AB21D4BB3F834389BB2C6
:105550009A4212D21A4BB3F830389BB25A1C91B20D
:10556000174AA2F830181A46154B9B5CDBB29BB267
:1055700019461248FDF716FB1BE0114B002283F879
:1055800037280F4B0022A3F830280D4B002283F858
:1055900038280B4B0022A3F83428002240F2277150
:1055A0000648FDF7B8FA4FF483620021044801F081
:1055B000FCF800BF0837BD4680BD00BF0044004076
:1055C000D811002080B5ADF5816D00AF3B1D18608E
:1055D0000A46FB1C1A7007F108034FF48062002191
:1055E000184601F0E2F8FB1C1B789BB2C3F17F0365
:1055F0009AB207F108034FF480611846FDF71AFECE
:105600003B1D1A6807F10803104619464FF48063E2
:105610001A4601F0BFF800BF07F58167BD4680BD9F
:1056200080B5ADF5826D00AF3B1D18600A46FB1CCE
:105630001A7007F10C034FF480620021184601F044
:10564000B4F807F10C023B1D1B68104619464FF4D5
:1056500080631A4601F09EF84FF48060FDF756FE15
:105660000346A7F80E34B7F80E34B3F5806F03D9AC
:105670004FF48063A7F80E34FB1C1B789BB2C3F178
:105680007F039AB2B7F80E1407F10C031846FDF722
:1056900025FE00BF07F58267BD4680BD80B500AF1F
:1056A000154A154B104603F583634FF48362194680
:1056B00001F070F84FF483620021104801F075F892
:1056C0000D4B0022A3F832280B4B0022A3F8302800
:1056D000094B002283F83728074B012283F838282A
:1056E000054BB3F834389BB203339AB2024BA3F89C
:1056F000342800BF80BD00BFD8110020F015002065
:1057000080B586B000AF78600B46FB70FB78012B4C
:1057100013D17A6807F10C031068516803C307F1CD
:105720000C031846FEF760F84AF2A5510420FCF776
:10573000BDF8104B0022DA7018E0FB78002B15D171
:10574000FCF7B0FC786107F10C0379691846FDF7A6
:10575000F3FD07F10C0308211846FEF701F87B68FA
:105760001A4607F10C0303CB1060516000BF1837D5
:10577000BD4680BDCC07002080B5ADF5806D00AF83
:105780003B464FF480620021184601F00EF8564B5C
:1057900093F81934DBB2303B032B00F29F8001A257
:1057A00052F823F0B5570008675800087D580008E4
:1057B000AD5800084C4B93F81B34DBB29BB2303B26
:1057C0009BB24A4A19469180032B45D8474B9B8888
:1057D0009BB2DBB219464648FFF7F4FE00F0BAFF71
:1057E0000246414B93F81D34DBB2013313441B785E
:1057F00003F09703002B13D13B4B93F81D34DBB21E
:105800000D2B0DD0384B93F81D34DBB20A2B07D08B
:10581000354B002283F81D24334B002283F81C24CF
:10582000314B93F81C34DBB2002B08D02E4B93F88D
:105830001C34DBB23033DAB22B4B83F81C242D48F6
:10584000FAF786FC03469BB202339AB2264BA3F8C2
:105850003428FFF723FF42E04FF4836200212648FB
:1058600000F0A3FF3BE0204B0722A3F834280021DF
:105870002248FFF745FFFFF711FF30E01A4B0122E6
:10588000A3F83428194B04229A80184B9B889BB2AA
:10589000DAB23B4611461846FFF794FE3B461A78AB
:1058A000114B83F81B24FFF7F9FE18E00E4B012281
:1058B000A3F834280D4B04229A800C4B9B889BB292
:1058C000DAB23B4611461846FFF77CFE3B465A7853
:1058D000054B83F81B24FFF7E1FE00E000BF00BF8B
:1058E00007F58067BD4680BDD8110020CC1100208F
:1058F000F4150020F5150020F0150020F315002008
:1059000080B5ADF5806D00AF3B464FF4806200215D
:10591000184600F04AFF454B0022A3F83428434BB9
:1059200093F81934DBB2303B032B78D801A252F83C
:1059300023F000BF4559000893590008A7590008F3
:10594000E3590008394B93F81B34DBB29BB2303B70
:105950009BB2374A19469180032B13D8334B93F8E7
:105960001C34DBB2303BDAB2304B83F81C24304BB2
:105970009B889BB2DBB219462E48FFF751FEFFF71A
:105980008DFE4DE04FF4836200212B4800F00DFFA7
:1059900046E001212948FFF7B3FE294B0022DA70C7
:1059A000FFF77CFE3CE0224B04229A80204B9B8830
:1059B0009BB2DAB23B4611461846FFF703FE1B4B7B
:1059C00093F81B34DAB23B461A70194B9B889BB292
:1059D000DAB23B4611461846FFF722FEFFF75EFE9D
:1059E0001EE0134B04229A80114B9B889BB2DAB2C3
:1059F0003B4611461846FFF7E5FD0C4B93F81B3468
:105A0000DAB23B465A700A4B9B889BB2DAB23B46ED
:105A100011461846FFF704FEFFF740FE00E000BF06
:105A200000BF07F58067BD4680BD00BFD8110020CC
:105A3000CC110020F4150020F0150020F3150020F3
:105A4000CC07002080B500AF3E4B93F83738DBB26F
:105A5000002B37D13B4BB3F832389BB2022B31D9F4
:105A6000384B93F83638DBB2142B2BD9354B93F8DF
:105A70001834DBB2242B20D1324B93F81A34DBB22A
:105A8000302B02D1FFF778FE17E02E4B93F81A3433
:105A9000DBB2312B02D1FFF733FF0EE0294B93F835
:105AA0001A34DBB2342B08D1264B312283F81A2466
:105AB000FFF726FF234B34229A70224B0022A3F8D3
:105AC000322815E01F4B93F83738DBB2002B0FD18B
:105AD0001C4BB3F832389BB2022B09D8194B93F800
